{
  "_format": "hh-sol-artifact-1",
  "contractName": "ShakeOnIt",
  "sourceName": "contracts/ShakeOnIt.sol",
  "abi": [
    {
      "inputs": [
        {
          "internalType": "address",
          "name": "multiSig",
          "type": "address"
        },
        {
          "internalType": "address",
          "name": "platform",
          "type": "address"
        }
      ],
      "stateMutability": "nonpayable",
      "type": "constructor"
    },
    {
      "inputs": [
        {
          "internalType": "address",
          "name": "owner",
          "type": "address"
        }
      ],
      "name": "OwnableInvalidOwner",
      "type": "error"
    },
    {
      "inputs": [
        {
          "internalType": "address",
          "name": "account",
          "type": "address"
        }
      ],
      "name": "OwnableUnauthorizedAccount",
      "type": "error"
    },
    {
      "anonymous": false,
      "inputs": [
        {
          "indexed": true,
          "internalType": "address",
          "name": "oldRegistry",
          "type": "address"
        },
        {
          "indexed": true,
          "internalType": "address",
          "name": "newRegistry",
          "type": "address"
        }
      ],
      "name": "BetRegistryUpgraded",
      "type": "event"
    },
    {
      "anonymous": false,
      "inputs": [
        {
          "indexed": true,
          "internalType": "address",
          "name": "previousOwner",
          "type": "address"
        },
        {
          "indexed": true,
          "internalType": "address",
          "name": "newOwner",
          "type": "address"
        }
      ],
      "name": "OwnershipTransferred",
      "type": "event"
    },
    {
      "anonymous": false,
      "inputs": [
        {
          "indexed": true,
          "internalType": "address",
          "name": "userVault",
          "type": "address"
        },
        {
          "indexed": true,
          "internalType": "address",
          "name": "userRegistry",
          "type": "address"
        },
        {
          "indexed": true,
          "internalType": "address",
          "name": "betRegistry",
          "type": "address"
        },
        {
          "indexed": false,
          "internalType": "address",
          "name": "platformAddress",
          "type": "address"
        }
      ],
      "name": "SystemDeployed",
      "type": "event"
    },
    {
      "inputs": [],
      "name": "betRegistry",
      "outputs": [
        {
          "internalType": "contract BetRegistry",
          "name": "",
          "type": "address"
        }
      ],
      "stateMutability": "view",
      "type": "function"
    },
    {
      "inputs": [],
      "name": "owner",
      "outputs": [
        {
          "internalType": "address",
          "name": "",
          "type": "address"
        }
      ],
      "stateMutability": "view",
      "type": "function"
    },
    {
      "inputs": [],
      "name": "renounceOwnership",
      "outputs": [],
      "stateMutability": "nonpayable",
      "type": "function"
    },
    {
      "inputs": [
        {
          "internalType": "address",
          "name": "newPlatform",
          "type": "address"
        }
      ],
      "name": "setPlatformAddress",
      "outputs": [],
      "stateMutability": "nonpayable",
      "type": "function"
    },
    {
      "inputs": [
        {
          "internalType": "address",
          "name": "token",
          "type": "address"
        },
        {
          "internalType": "bool",
          "name": "allowed",
          "type": "bool"
        }
      ],
      "name": "setTokenAllowed",
      "outputs": [],
      "stateMutability": "nonpayable",
      "type": "function"
    },
    {
      "inputs": [
        {
          "internalType": "address",
          "name": "newOwner",
          "type": "address"
        }
      ],
      "name": "transferOwnership",
      "outputs": [],
      "stateMutability": "nonpayable",
      "type": "function"
    },
    {
      "inputs": [
        {
          "internalType": "address",
          "name": "newRegistry",
          "type": "address"
        }
      ],
      "name": "upgradeBetRegistry",
      "outputs": [],
      "stateMutability": "nonpayable",
      "type": "function"
    },
    {
      "inputs": [],
      "name": "userRegistry",
      "outputs": [
        {
          "internalType": "contract UserRegistry",
          "name": "",
          "type": "address"
        }
      ],
      "stateMutability": "view",
      "type": "function"
    },
    {
      "inputs": [],
      "name": "userVault",
      "outputs": [
        {
          "internalType": "contract UserVault",
          "name": "",
          "type": "address"
        }
      ],
      "stateMutability": "view",
      "type": "function"
    }
  ],
  "bytecode": "0x60c060405234801561001057600080fd5b50604051615e30380380615e3083398101604081905261002f91610390565b816001600160a01b03811661005f57604051631e4fbdf760e01b8152600060048201526024015b60405180910390fd5b610068816102fd565b506001600160a01b0381166100bf5760405162461bcd60e51b815260206004820152601860248201527f496e76616c696420706c6174666f726d206164647265737300000000000000006044820152606401610056565b306040516100cc9061034d565b6001600160a01b039091168152602001604051809103906000f0801580156100f8573d6000803e3d6000fd5b506001600160a01b031660805260405130906101139061035a565b6001600160a01b039091168152602001604051809103906000f08015801561013f573d6000803e3d6000fd5b506001600160a01b031660a0819052608051604051309284929161016290610367565b6001600160a01b039485168152928416602084015290831660408301529091166060820152608001604051809103906000f0801580156101a6573d6000803e3d6000fd5b50600180546001600160a01b0319166001600160a01b03928316908117909155608051604051632f2ff15d60e01b8152600080516020615e108339815191526004820152602481019290925290911690632f2ff15d90604401600060405180830381600087803b15801561021957600080fd5b505af115801561022d573d6000803e3d6000fd5b505060a051600154604051632f2ff15d60e01b8152600080516020615e1083398151915260048201526001600160a01b03918216602482015291169250632f2ff15d9150604401600060405180830381600087803b15801561028e57600080fd5b505af11580156102a2573d6000803e3d6000fd5b505060015460a051608051604080516001600160a01b03888116825291519482169650928116945016917fdd055ee7760ecf10aa18e140081a15b676bee2601a49640b6d219dec2f84c9ef9181900360200190a450506103c3565b600080546001600160a01b038381166001600160a01b0319831681178455604051919092169283917f8be0079c531659141344cd1fd0a4f28419497f9722a3daafe3b4186f6b6457e09190a35050565b6110a080610c4d83390190565b610ac980611ced83390190565b61365a806127b683390190565b80516001600160a01b038116811461038b57600080fd5b919050565b600080604083850312156103a357600080fd5b6103ac83610374565b91506103ba60208401610374565b90509250929050565b60805160a05161084361040a6000396000818160cb0152818161040c015261052801526000818161011e0152818161019501528181610380015261049a01526108436000f3fe608060405234801561001057600080fd5b50600436106100835760003560e01c806315f69012146100885780631ff677bf1461009d5780635c7460d6146100c6578063663dea27146100ed578063715018a6146101005780638da5cb5b146101085780639daafec714610119578063cc03c34214610140578063f2fde38b14610153575b600080fd5b61009b61009636600461074b565b610166565b005b6001546100b0906001600160a01b031681565b6040516100bd9190610787565b60405180910390f35b6100b07f000000000000000000000000000000000000000000000000000000000000000081565b61009b6100fb36600461079b565b6101f5565b61009b6105f3565b6000546001600160a01b03166100b0565b6100b07f000000000000000000000000000000000000000000000000000000000000000081565b61009b61014e36600461079b565b610607565b61009b61016136600461079b565b610674565b61016e6106b2565b604051630afb480960e11b81526001600160a01b03838116600483015282151560248301527f000000000000000000000000000000000000000000000000000000000000000016906315f6901290604401600060405180830381600087803b1580156101d957600080fd5b505af11580156101ed573d6000803e3d6000fd5b505050505050565b6101fd6106b2565b6001600160a01b03811661024a5760405162461bcd60e51b815260206004820152600f60248201526e496e76616c6964206164647265737360881b60448201526064015b60405180910390fd5b6001546001600160a01b03908116908216036102a35760405162461bcd60e51b8152602060048201526018602482015277416c72656164792063757272656e7420726567697374727960401b6044820152606401610241565b600160009054906101000a90046001600160a01b03166001600160a01b031663cd896e646040518163ffffffff1660e01b8152600401602060405180830381865afa1580156102f6573d6000803e3d6000fd5b505050506040513d601f19601f8201168201806040525081019061031a91906107bd565b156103625760405162461bcd60e51b815260206004820152601860248201527752656769737472792068617320616374697665206265747360401b6044820152606401610241565b60015460405163d547741f60e01b81526001600160a01b03918216917f0000000000000000000000000000000000000000000000000000000000000000169063d547741f906103c5906000805160206107ee8339815191529085906004016107d6565b600060405180830381600087803b1580156103df57600080fd5b505af11580156103f3573d6000803e3d6000fd5b505060405163d547741f60e01b81526001600160a01b037f000000000000000000000000000000000000000000000000000000000000000016925063d547741f9150610453906000805160206107ee8339815191529085906004016107d6565b600060405180830381600087803b15801561046d57600080fd5b505af1158015610481573d6000803e3d6000fd5b5050604051632f2ff15d60e01b81526001600160a01b037f0000000000000000000000000000000000000000000000000000000000000000169250632f2ff15d91506104e1906000805160206107ee8339815191529086906004016107d6565b600060405180830381600087803b1580156104fb57600080fd5b505af115801561050f573d6000803e3d6000fd5b5050604051632f2ff15d60e01b81526001600160a01b037f0000000000000000000000000000000000000000000000000000000000000000169250632f2ff15d915061056f906000805160206107ee8339815191529086906004016107d6565b600060405180830381600087803b15801561058957600080fd5b505af115801561059d573d6000803e3d6000fd5b5050600180546001600160a01b0319166001600160a01b0386811691821790925560405190935090841691507f2c27193c070071b3a3afd49f83cbd859f7bc5d0d8ade568abedb7722b26dc97d90600090a35050565b6105fb6106b2565b61060560006106df565b565b61060f6106b2565b600154604051636601e1a160e11b81526001600160a01b039091169063cc03c3429061063f908490600401610787565b600060405180830381600087803b15801561065957600080fd5b505af115801561066d573d6000803e3d6000fd5b5050505050565b61067c6106b2565b6001600160a01b0381166106a6576000604051631e4fbdf760e01b81526004016102419190610787565b6106af816106df565b50565b6000546001600160a01b03163314610605573360405163118cdaa760e01b81526004016102419190610787565b600080546001600160a01b038381166001600160a01b0319831681178455604051919092169283917f8be0079c531659141344cd1fd0a4f28419497f9722a3daafe3b4186f6b6457e09190a35050565b80356001600160a01b038116811461074657600080fd5b919050565b6000806040838503121561075e57600080fd5b6107678361072f565b91506020830135801515811461077c57600080fd5b809150509250929050565b6001600160a01b0391909116815260200190565b6000602082840312156107ad57600080fd5b6107b68261072f565b9392505050565b6000602082840312156107cf57600080fd5b5051919050565b9182526001600160a01b031660208201526040019056fe3bc0f9b42c848822f1a4151f4808327c629e6c48db254bac4c9b15f4c4d275b0a2646970667358221220c18668b3b9a1ca96ccba8e548c98e20c67642250e9680fcbd29d533bfae6f16364736f6c634300081c0033608060405234801561001057600080fd5b506040516110a03803806110a083398101604081905261002f916100f1565b6001805561003e600082610045565b5050610121565b6000828152602081815260408083206001600160a01b038516845290915281205460ff166100e7576000838152602081815260408083206001600160a01b03861684529091529020805460ff1916600117905561009f3390565b6001600160a01b0316826001600160a01b0316847f2f8788117e7eff1d82e926ec794901d17c78024a50270940304540a733656f0d60405160405180910390a45060016100eb565b5060005b92915050565b60006020828403121561010357600080fd5b81516001600160a01b038116811461011a57600080fd5b9392505050565b610f70806101306000396000f3fe608060405234801561001057600080fd5b50600436106101015760003560e01c806347e7ef241161009d57806347e7ef241461023257806359508f8f14610245578063647e60a4146102585780637750c9f01461026d5780637de182c51461028057806391d1485414610293578063a217fddf146102a6578063d547741f146102ae578063e744092e146102c1578063f3fef3a3146102e457600080fd5b806301ffc9a7146101065780631453b9871461012e57806315f690121461014f578063248a9ca314610164578063262709e6146101875780632f2ff15d1461019a5780633419d6ef146101ad57806336568abe146101e65780633ccb64ae146101f9575b600080fd5b610119610114366004610cfd565b6102f7565b60405190151581526020015b60405180910390f35b61014161013c366004610d43565b61032e565b604051908152602001610125565b61016261015d366004610d76565b61037c565b005b610141610172366004610db2565b60009081526020819052604090206001015490565b610162610195366004610dcb565b6103e7565b6101626101a8366004610e08565b6104de565b6101416101bb366004610d43565b6001600160a01b03918216600090815260046020908152604080832093909416825291909152205490565b6101626101f4366004610e08565b610509565b610141610207366004610d43565b6001600160a01b03918216600090815260036020908152604080832093909416825291909152205490565b610162610240366004610e2b565b610541565b610162610253366004610dcb565b610691565b610141600080516020610f1b83398151915281565b61016261027b366004610dcb565b6107ad565b61016261028e366004610dcb565b6108c9565b6101196102a1366004610e08565b610964565b610141600081565b6101626102bc366004610e08565b61098d565b6101196102cf366004610e55565b60026020526000908152604090205460ff1681565b6101626102f2366004610e2b565b6109b2565b60006001600160e01b03198216637965db0b60e01b148061032857506301ffc9a760e01b6001600160e01b03198316145b92915050565b6001600160a01b0380831660008181526004602090815260408083209486168084529482528083205493835260038252808320948352939052918220546103759190610e86565b9392505050565b600061038781610a87565b6001600160a01b038316600081815260026020908152604091829020805460ff191686151590811790915591519182527f1da521c13439ac6ab125c52e0da7dd7de929f09e58aa0f89ebe3dbb12e63a52b910160405180910390a2505050565b600080516020610f1b8339815191526103ff81610a87565b6001600160a01b0380851660009081526004602090815260408083209387168352929052205482111561044d5760405162461bcd60e51b815260040161044490610e99565b60405180910390fd5b6001600160a01b03808516600090815260046020908152604080832093871683529290529081208054849290610484908490610ed0565b92505081905550826001600160a01b0316846001600160a01b03167f9407bd81f01ad8f5ae4a2487b63d3d1b1947257c2dcdda3ea183dc8e6965cc6e846040516104d091815260200190565b60405180910390a350505050565b6000828152602081905260409020600101546104f981610a87565b6105038383610a94565b50505050565b6001600160a01b03811633146105325760405163334bd91960e11b815260040160405180910390fd5b61053c8282610b26565b505050565b610549610b91565b6001600160a01b03821660009081526002602052604090205460ff166105a55760405162461bcd60e51b8152602060048201526011602482015270151bdad95b881b9bdd08185b1b1bddd959607a1b6044820152606401610444565b600081116105f55760405162461bcd60e51b815260206004820152601d60248201527f416d6f756e74206d7573742062652067726561746572207468616e20300000006044820152606401610444565b3360009081526003602090815260408083206001600160a01b038616845290915281208054839290610628908490610e86565b9091555061064390506001600160a01b038316333084610bbb565b6040518181526001600160a01b0383169033907f8752a472e571a816aea92eec8dae9baf628e840f4929fbcc2d155e6233ff68a7906020015b60405180910390a361068d60018055565b5050565b600080516020610f1b8339815191526106a981610a87565b6001600160a01b038085166000908152600460209081526040808320938716835292905220548211156106ee5760405162461bcd60e51b815260040161044490610e99565b6001600160a01b03808516600090815260046020908152604080832093871683529290529081208054849290610725908490610ed0565b90915550506001600160a01b03808516600090815260036020908152604080832093871683529290529081208054849290610761908490610e86565b92505081905550826001600160a01b0316846001600160a01b03167fe6e0ef9cd056ca98561ca60e347ada61e1ede2f1142a078951b7a52e1e508e60846040516104d091815260200190565b600080516020610f1b8339815191526107c581610a87565b6001600160a01b0380851660009081526003602090815260408083209387168352929052205482111561080a5760405162461bcd60e51b815260040161044490610ee3565b6001600160a01b03808516600090815260036020908152604080832093871683529290529081208054849290610841908490610ed0565b90915550506001600160a01b0380851660009081526004602090815260408083209387168352929052908120805484929061087d908490610e86565b92505081905550826001600160a01b0316846001600160a01b03167f989eaa915cbb416ea3d6f9a63b1a3de51770c7674b11fe21ecdf76b4e1d13910846040516104d091815260200190565b600080516020610f1b8339815191526108e181610a87565b6001600160a01b03808516600090815260036020908152604080832093871683529290529081208054849290610918908490610e86565b92505081905550826001600160a01b0316846001600160a01b03167f4e45da441832cf53bdaa69235704fc0575e68210f459ee1562911024b12967d5846040516104d091815260200190565b6000918252602082815260408084206001600160a01b0393909316845291905290205460ff1690565b6000828152602081905260409020600101546109a881610a87565b6105038383610b26565b6109ba610b91565b3360009081526003602090815260408083206001600160a01b03861684529091529020548111156109fd5760405162461bcd60e51b815260040161044490610ee3565b3360009081526003602090815260408083206001600160a01b038616845290915281208054839290610a30908490610ed0565b90915550610a4a90506001600160a01b0383163383610c22565b6040518181526001600160a01b0383169033907fd1c19fbcd4551a5edfb66d43d2e337c04837afda3482b42bdf569a8fccdae5fb9060200161067c565b610a918133610c53565b50565b6000610aa08383610964565b610b1e576000838152602081815260408083206001600160a01b03861684529091529020805460ff19166001179055610ad63390565b6001600160a01b0316826001600160a01b0316847f2f8788117e7eff1d82e926ec794901d17c78024a50270940304540a733656f0d60405160405180910390a4506001610328565b506000610328565b6000610b328383610964565b15610b1e576000838152602081815260408083206001600160a01b0386168085529252808320805460ff1916905551339286917ff6391f5c32d9c69d2a47ea670b442974b53935d1edc7fd64eb21e047a839171b9190a4506001610328565b600260015403610bb457604051633ee5aeb560e01b815260040160405180910390fd5b6002600155565b6040516001600160a01b0384811660248301528381166044830152606482018390526105039186918216906323b872dd906084015b604051602081830303815290604052915060e01b6020820180516001600160e01b038381831617835250505050610c8c565b6040516001600160a01b0383811660248301526044820183905261053c91859182169063a9059cbb90606401610bf0565b610c5d8282610964565b61068d5760405163e2517d3f60e01b81526001600160a01b038216600482015260248101839052604401610444565b600080602060008451602086016000885af180610caf576040513d6000823e3d81fd5b50506000513d91508115610cc7578060011415610cd4565b6001600160a01b0384163b155b1561050357604051635274afe760e01b81526001600160a01b0385166004820152602401610444565b600060208284031215610d0f57600080fd5b81356001600160e01b03198116811461037557600080fd5b80356001600160a01b0381168114610d3e57600080fd5b919050565b60008060408385031215610d5657600080fd5b610d5f83610d27565b9150610d6d60208401610d27565b90509250929050565b60008060408385031215610d8957600080fd5b610d9283610d27565b915060208301358015158114610da757600080fd5b809150509250929050565b600060208284031215610dc457600080fd5b5035919050565b600080600060608486031215610de057600080fd5b610de984610d27565b9250610df760208501610d27565b929592945050506040919091013590565b60008060408385031215610e1b57600080fd5b82359150610d6d60208401610d27565b60008060408385031215610e3e57600080fd5b610e4783610d27565b946020939093013593505050565b600060208284031215610e6757600080fd5b61037582610d27565b634e487b7160e01b600052601160045260246000fd5b8082018082111561032857610328610e70565b6020808252601b908201527f496e73756666696369656e74206c6f636b65642062616c616e63650000000000604082015260600190565b8181038181111561032857610328610e70565b6020808252601e908201527f496e73756666696369656e7420617661696c61626c652062616c616e6365000060408201526060019056fe3bc0f9b42c848822f1a4151f4808327c629e6c48db254bac4c9b15f4c4d275b0a2646970667358221220ea2ef64df62e88c13cc3e43e5053ef3702707a72a8398257092a3f1a1f1ce16164736f6c634300081c0033608060405234801561001057600080fd5b50604051610ac9380380610ac983398101604081905261002f916100ed565b61003a600082610041565b505061011d565b6000828152602081815260408083206001600160a01b038516845290915281205460ff166100e3576000838152602081815260408083206001600160a01b03861684529091529020805460ff1916600117905561009b3390565b6001600160a01b0316826001600160a01b0316847f2f8788117e7eff1d82e926ec794901d17c78024a50270940304540a733656f0d60405160405180910390a45060016100e7565b5060005b92915050565b6000602082840312156100ff57600080fd5b81516001600160a01b038116811461011657600080fd5b9392505050565b61099d8061012c6000396000f3fe608060405234801561001057600080fd5b50600436106100ca5760003560e01c80638a0cec1a1161007c5780638a0cec1a146101ad57806391d14854146101c0578063a217fddf146101d3578063a6c71aec146101db578063c3c5a5471461021c578063d547741f14610248578063e1fa8e841461025b57600080fd5b806301ffc9a7146100cf5780630f53a470146100f7578063248a9ca31461012c5780632f2ff15d1461015d57806336568abe14610172578063647e60a414610185578063739b47ca1461019a575b600080fd5b6100e26100dd366004610846565b61026e565b60405190151581526020015b60405180910390f35b61010a610105366004610893565b6102a5565b60408051825181526020808401519082015291810151908201526060016100ee565b61014f61013a3660046108ae565b60009081526020819052604090206001015490565b6040519081526020016100ee565b61017061016b3660046108c7565b610340565b005b6101706101803660046108c7565b61036b565b61014f60008051602061094883398151915281565b6101706101a8366004610893565b6103a3565b6101706101bb366004610893565b61046b565b6100e26101ce3660046108c7565b610526565b61014f600081565b6102046101e93660046108ae565b6000908152600360205260409020546001600160a01b031690565b6040516001600160a01b0390911681526020016100ee565b6100e261022a366004610893565b6001600160a01b031660009081526002602052604090205460ff1690565b6101706102563660046108c7565b61054f565b6101706102693660046108ae565b610574565b60006001600160e01b03198216637965db0b60e01b148061029f57506301ffc9a760e01b6001600160e01b03198316145b92915050565b60408051606081018252600080825260208083018290528284018290526001600160a01b038516825260029052919091205460ff166102ff5760405162461bcd60e51b81526004016102f6906108f3565b60405180910390fd5b506001600160a01b03166000908152600160208181526040928390208351606081018552815481529281015491830191909152600201549181019190915290565b60008281526020819052604090206001015461035b816106ff565b610365838361070c565b50505050565b6001600160a01b03811633146103945760405163334bd91960e11b815260040160405180910390fd5b61039e828261079e565b505050565b6000805160206109488339815191526103bb816106ff565b6001600160a01b03821660009081526002602052604090205460ff166103f35760405162461bcd60e51b81526004016102f6906108f3565b6001600160a01b03821660009081526001602081905260408220018054829061041b90610920565b9190508190559050826001600160a01b03167fce9186781e8006f36a263069cd0536d17c70074ebc34f8a94031520f1ac7b3248260405161045e91815260200190565b60405180910390a2505050565b600080516020610948833981519152610483816106ff565b6001600160a01b03821660009081526002602052604090205460ff166104bb5760405162461bcd60e51b81526004016102f6906108f3565b6001600160a01b0382166000908152600160205260408120600201805482906104e390610920565b9190508190559050826001600160a01b03167fa4325e9537de0993cb7e718526f107525a5d529f2644c35bf9785cce2fe77b668260405161045e91815260200190565b6000918252602082815260408084206001600160a01b0393909316845291905290205460ff1690565b60008281526020819052604090206001015461056a816106ff565b610365838361079e565b3360009081526002602052604090205460ff16156105c95760405162461bcd60e51b8152602060048201526012602482015271105b1c9958591e481c9959da5cdd195c995960721b60448201526064016102f6565b806106115760405162461bcd60e51b8152602060048201526018602482015277557365726e616d652063616e6e6f7420626520656d70747960401b60448201526064016102f6565b6000818152600360205260409020546001600160a01b03161561066f5760405162461bcd60e51b81526020600482015260166024820152752ab9b2b93730b6b29030b63932b0b23c903a30b5b2b760511b60448201526064016102f6565b6040805160608101825282815260006020808301828152838501838152338085526001808552878620965187559251868401559051600295860155938252848320805460ff191690911790558482526003905282812080546001600160a01b03191683179055915183927f4c5d15f5779ae1ecd7d55bd3283d898e29c35743d172bd7b83a16e17bc0afe2a91a350565b6107098133610809565b50565b60006107188383610526565b610796576000838152602081815260408083206001600160a01b03861684529091529020805460ff1916600117905561074e3390565b6001600160a01b0316826001600160a01b0316847f2f8788117e7eff1d82e926ec794901d17c78024a50270940304540a733656f0d60405160405180910390a450600161029f565b50600061029f565b60006107aa8383610526565b15610796576000838152602081815260408083206001600160a01b0386168085529252808320805460ff1916905551339286917ff6391f5c32d9c69d2a47ea670b442974b53935d1edc7fd64eb21e047a839171b9190a450600161029f565b6108138282610526565b6108425760405163e2517d3f60e01b81526001600160a01b0382166004820152602481018390526044016102f6565b5050565b60006020828403121561085857600080fd5b81356001600160e01b03198116811461087057600080fd5b9392505050565b80356001600160a01b038116811461088e57600080fd5b919050565b6000602082840312156108a557600080fd5b61087082610877565b6000602082840312156108c057600080fd5b5035919050565b600080604083850312156108da57600080fd5b823591506108ea60208401610877565b90509250929050565b602080825260139082015272155cd95c881b9bdd081c9959da5cdd195c9959606a1b604082015260600190565b60006001820161094057634e487b7160e01b600052601160045260246000fd5b506001019056fe3bc0f9b42c848822f1a4151f4808327c629e6c48db254bac4c9b15f4c4d275b0a2646970667358221220fa30fa86a846ef0766c8f98a9bd43561b09dc1a1f8392422d908fe05e40ea42c64736f6c634300081c003360c060405234801561001057600080fd5b5060405161365a38038061365a83398101604081905261002f91610236565b6001600160a01b03831661008a5760405162461bcd60e51b815260206004820152601860248201527f496e76616c696420706c6174666f726d2061646472657373000000000000000060448201526064015b60405180910390fd5b6001600160a01b0382166100e05760405162461bcd60e51b815260206004820152601560248201527f496e76616c6964207661756c74206164647265737300000000000000000000006044820152606401610081565b6001600160a01b0381166101365760405162461bcd60e51b815260206004820152601860248201527f496e76616c6964207265676973747279206164647265737300000000000000006044820152606401610081565b61014160008561016e565b50600380546001600160a01b0319166001600160a01b039485161790559082166080521660a0525061028a565b6000828152602081815260408083206001600160a01b038516845290915281205460ff16610210576000838152602081815260408083206001600160a01b03861684529091529020805460ff191660011790556101c83390565b6001600160a01b0316826001600160a01b0316847f2f8788117e7eff1d82e926ec794901d17c78024a50270940304540a733656f0d60405160405180910390a4506001610214565b5060005b92915050565b80516001600160a01b038116811461023157600080fd5b919050565b6000806000806080858703121561024c57600080fd5b6102558561021a565b93506102636020860161021a565b92506102716040860161021a565b915061027f6060860161021a565b905092959194509250565b60805160a0516132d26103886000396000818161022101528181610981015281816109ff015281816111460152818161120b0152818161163301528181611c1e0152818161295a01526129d80152600081816102df0152818161072b015281816107c20152818161084c015281816108f801528181610baf01528181610dc201528181610e5a01528181610eee01528181610f81015281816110030152818161140301528181611aa501528181611e6b0152818161203c015281816120d401528181612168015281816121fb0152818161227d0152818161267c01528181612713015281816127a50152818161283c01526128d101526132d26000f3fe608060405234801561001057600080fd5b50600436106101175760003560e01c80637b103999116100a85780637b1039991461021c57806386e773f11461025057806391d1485414610263578063a217fddf14610276578063b93dab0b1461027e578063cc03c34214610286578063cd896e6414610299578063d547741f146102a1578063dbe55e56146102b4578063e374b097146102c7578063fbfa77cf146102da57600080fd5b806301ffc9a71461011c578063061e494f14610144578063248a9ca3146101645780632f2ff15d1461019557806336568abe146101aa5780633ed546ab146101bd57806340e58ee5146101d05780634e3d731c146101e357806353e4c60b146101f65780636c0c27e114610209575b600080fd5b61012f61012a366004612be9565b610301565b60405190151581526020015b60405180910390f35b610157610152366004612c1a565b610338565b60405161013b9190612cc0565b610187610172366004612c1a565b60009081526020819052604090206001015490565b60405190815260200161013b565b6101a86101a3366004612dc0565b610565565b005b6101a86101b8366004612dc0565b610590565b6101a86101cb366004612c1a565b6105c8565b6101a86101de366004612c1a565b610acd565b6101a86101f1366004612dec565b610c7a565b610187610204366004612e61565b61112c565b6101a8610217366004612c1a565b611bc0565b6102437f000000000000000000000000000000000000000000000000000000000000000081565b60405161013b9190612e9c565b6101a861025e366004612c1a565b611f28565b61012f610271366004612dc0565b612373565b610187600081565b600154610187565b6101a8610294366004612eb0565b61239c565b600254610187565b6101a86102af366004612dc0565b612455565b600354610243906001600160a01b031681565b6101a86102d5366004612dc0565b61247a565b6102437f000000000000000000000000000000000000000000000000000000000000000081565b60006001600160e01b03198216637965db0b60e01b148061033257506301ffc9a760e01b6001600160e01b03198316145b92915050565b6103d1604080516101a0810190915280600081526020016000815260200160006001600160a01b0316815260200160006001600160a01b0316815260200160006001600160a01b0316815260200160006001600160a01b0316815260200160006001600160a01b031681526020016000815260200160008152602001600081526020016000815260200160008152602001606081525090565b6000828152600460205260409081902081516101a081019092528054829060ff16600181111561040357610403612c33565b600181111561041457610414612c33565b81528154602090910190610100900460ff16600481111561043757610437612c33565b600481111561044857610448612c33565b815281546001600160a01b03620100009091048116602083015260018301548116604083015260028301548116606083015260038301548116608083015260048301541660a0820152600582015460c0820152600682015460e0820152600782015461010082015260088201546101208201526009820154610140820152600a82018054610160909201916104dc90612ecb565b80601f016020809104026020016040519081016040528092919081815260200182805461050890612ecb565b80156105555780601f1061052a57610100808354040283529160200191610555565b820191906000526020600020905b81548152906001019060200180831161053857829003601f168201915b5050505050815250509050919050565b60008281526020819052604090206001015461058081612ab0565b61058a8383612abd565b50505050565b6001600160a01b03811633146105b95760405163334bd91960e11b815260040160405180910390fd5b6105c38282612b4f565b505050565b600081815260046020526040902060018154610100900460ff1660048111156105f3576105f3612c33565b146106195760405162461bcd60e51b815260040161061090612f05565b60405180910390fd5b60018101546001600160a01b0316331480610640575060028101546001600160a01b031633145b61068c5760405162461bcd60e51b815260206004820152601d60248201527f4f6e6c79207061727469636970616e74732063616e20666f72666569740000006044820152606401610610565b60018101546000906001600160a01b031633146106b65760018201546001600160a01b03166106c5565b60028201546001600160a01b03165b6004830180546001600160a01b0319166001600160a01b038316179055825461ff00191661040017835560028054919250339160009061070490612f47565b9091555060018301548354600585015460405163131384f360e11b81526001600160a01b037f000000000000000000000000000000000000000000000000000000000000000081169463262709e69461076e94918316936201000090910490921691600401612f5e565b600060405180830381600087803b15801561078857600080fd5b505af115801561079c573d6000803e3d6000fd5b50505060028401548454600586015460405163131384f360e11b81526001600160a01b037f00000000000000000000000000000000000000000000000000000000000000008116955063262709e69461080694908216936201000090910490911691600401612f5e565b600060405180830381600087803b15801561082057600080fd5b505af1158015610834573d6000803e3d6000fd5b50508454600686015460088701546001600160a01b037f000000000000000000000000000000000000000000000000000000000000000081169550637de182c594508793620100009004169161088991612f82565b6040518463ffffffff1660e01b81526004016108a793929190612f5e565b600060405180830381600087803b1580156108c157600080fd5b505af11580156108d5573d6000803e3d6000fd5b505060035485546007870154604051637de182c560e01b81526001600160a01b037f000000000000000000000000000000000000000000000000000000000000000081169650637de182c5955061093a94811693620100009004169190600401612f5e565b600060405180830381600087803b15801561095457600080fd5b505af1158015610968573d6000803e3d6000fd5b50506040516339cda3e560e11b81526001600160a01b037f000000000000000000000000000000000000000000000000000000000000000016925063739b47ca91506109b8908590600401612e9c565b600060405180830381600087803b1580156109d257600080fd5b505af11580156109e6573d6000803e3d6000fd5b5050604051634506760d60e11b81526001600160a01b037f0000000000000000000000000000000000000000000000000000000000000000169250638a0cec1a9150610a36908490600401612e9c565b600060405180830381600087803b158015610a5057600080fd5b505af1158015610a64573d6000803e3d6000fd5b50508454600886015460078701546040516001600160a01b03808916965087811695508a947ff168f209746e78b34a215882be0c25fc0ad1ef38cdc78cd3951ff6f8b89c31a894610abf946201000090920490921692612f95565b60405180910390a450505050565b600081815260046020526040902060018101546001600160a01b03163314610b315760405162461bcd60e51b815260206004820152601760248201527613db9b1e4818dc99585d1bdc8818d85b8818d85b98d95b604a1b6044820152606401610610565b60008154610100900460ff166004811115610b4e57610b4e612c33565b14610b6b5760405162461bcd60e51b815260040161061090612fb6565b805461ff00191661030017815560028054600090610b8890612f47565b909155506001810154815460058301546040516359508f8f60e01b81526001600160a01b037f00000000000000000000000000000000000000000000000000000000000000008116946359508f8f94610bf294918316936201000090910490921691600401612f5e565b600060405180830381600087803b158015610c0c57600080fd5b505af1158015610c20573d6000803e3d6000fd5b5050825460058401546040513394508693507fcf611b3d77a30e8a547d6e2d6cf72c6b6ad9bc526225392c06d5b42c098caa1992610c6e92620100009091046001600160a01b031691612fdf565b60405180910390a35050565b6032811115610cc15760405162461bcd60e51b8152602060048201526013602482015272115e18d959591cc818985d18da081b1a5b5a5d606a1b6044820152606401610610565b60005b818110156105c357600060046000858585818110610ce457610ce4612ff8565b905060200201358152602001908152602001600020905060016004811115610d0e57610d0e612c33565b8154610100900460ff166004811115610d2957610d29612c33565b141580610d395750806009015442105b15610d445750611124565b805461ff00191661030017815560028054600090610d6190612f47565b90915550600581015460009061271090610d7e906101f49061300e565b610d889190613025565b90506000818360050154610d9c9190613047565b60018401548454600586015460405163131384f360e11b81529394506001600160a01b037f000000000000000000000000000000000000000000000000000000000000000081169463262709e694610e069490831693620100009091049092169190600401612f5e565b600060405180830381600087803b158015610e2057600080fd5b505af1158015610e34573d6000803e3d6000fd5b50505060028401548454600586015460405163131384f360e11b81526001600160a01b037f00000000000000000000000000000000000000000000000000000000000000008116955063262709e694610e9e94908216936201000090910490911691600401612f5e565b600060405180830381600087803b158015610eb857600080fd5b505af1158015610ecc573d6000803e3d6000fd5b5050505060018301548354604051637de182c560e01b81526001600160a01b037f0000000000000000000000000000000000000000000000000000000000000000811693637de182c593610f3193918316926201000090910416908690600401612f5e565b600060405180830381600087803b158015610f4b57600080fd5b505af1158015610f5f573d6000803e3d6000fd5b5050505060028301548354604051637de182c560e01b81526001600160a01b037f0000000000000000000000000000000000000000000000000000000000000000811693637de182c593610fc493918316926201000090910416908690600401612f5e565b600060405180830381600087803b158015610fde57600080fd5b505af1158015610ff2573d6000803e3d6000fd5b505060035485546001600160a01b037f000000000000000000000000000000000000000000000000000000000000000081169450637de182c5935091821691620100009091041661104486600261300e565b6040518463ffffffff1660e01b815260040161106293929190612f5e565b600060405180830381600087803b15801561107c57600080fd5b505af1158015611090573d6000803e3d6000fd5b505050600284015460018501546001600160a01b039182169250168787878181106110bd576110bd612ff8565b875460209091029290920135917f067b430fcb2d7998875dda05eced5f3d66a065c95a55ba5dd7a81e678cefa80091506001600160a01b0362010000909104168561110988600261300e565b60405161111893929190612f95565b60405180910390a45050505b600101610cc4565b60405163c3c5a54760e01b81526000906001600160a01b037f0000000000000000000000000000000000000000000000000000000000000000169063c3c5a5479061117b903390600401612e9c565b602060405180830381865afa158015611198573d6000803e3d6000fd5b505050506040513d601f19601f820116820180604052508101906111bc919061305a565b6112015760405162461bcd60e51b815260206004820152601660248201527510dc99585d1bdc881b9bdd081c9959da5cdd195c995960521b6044820152606401610610565b6001600160a01b037f00000000000000000000000000000000000000000000000000000000000000001663c3c5a5476112406060850160408601612eb0565b6040518263ffffffff1660e01b815260040161125c9190612e9c565b602060405180830381865afa158015611279573d6000803e3d6000fd5b505050506040513d601f19601f8201168201806040525081019061129d919061305a565b6112e25760405162461bcd60e51b8152602060048201526016602482015275105c989a5d195c881b9bdd081c9959da5cdd195c995960521b6044820152606401610610565b336112f36060840160408501612eb0565b6001600160a01b0316036113455760405162461bcd60e51b815260206004820152601960248201527820b93134ba32b91031b0b73737ba1031329031b932b0ba37b960391b6044820152606401610610565b60008260800135116113995760405162461bcd60e51b815260206004820152601c60248201527f5374616b65206d7573742062652067726561746572207468616e2030000000006044820152606401610610565b60008260c00135116113f95760405162461bcd60e51b815260206004820152602360248201527f506c6174666f726d20666565206d75737420626520677265617465722074686160448201526206e20360ec1b6064820152608401610610565b6001600160a01b037f00000000000000000000000000000000000000000000000000000000000000001663e744092e6114386040850160208601612eb0565b6040518263ffffffff1660e01b81526004016114549190612e9c565b602060405180830381865afa158015611471573d6000803e3d6000fd5b505050506040513d601f19601f82011682018060405250810190611495919061305a565b6114d55760405162461bcd60e51b8152602060048201526011602482015270151bdad95b881b9bdd08185b1b1bddd959607a1b6044820152606401610610565b428260e00135116115285760405162461bcd60e51b815260206004820152601e60248201527f446561646c696e65206d75737420626520696e207468652066757475726500006044820152606401610610565b61153a60c083013560a0840135612f82565b6115496080840135600261300e565b116115905760405162461bcd60e51b8152602060048201526017602482015276466565732065786365656420746f74616c207374616b6560481b6044820152606401610610565b600161159f602084018461307c565b60018111156115b0576115b0612c33565b036117c75760006115c76080840160608501612eb0565b6001600160a01b0316036116295760405162461bcd60e51b815260206004820152602360248201527f4368616c6c656e67657220726571756972656420666f7220707269766174652060448201526218995d60ea1b6064820152608401610610565b6001600160a01b037f00000000000000000000000000000000000000000000000000000000000000001663c3c5a5476116686080850160608601612eb0565b6040518263ffffffff1660e01b81526004016116849190612e9c565b602060405180830381865afa1580156116a1573d6000803e3d6000fd5b505050506040513d601f19601f820116820180604052508101906116c5919061305a565b6116e15760405162461bcd60e51b81526004016106109061309d565b336116f26080840160608501612eb0565b6001600160a01b0316036117485760405162461bcd60e51b815260206004820152601c60248201527f4368616c6c656e6765722063616e6e6f742062652063726561746f72000000006044820152606401610610565b6117586060830160408401612eb0565b6001600160a01b03166117716080840160608501612eb0565b6001600160a01b0316036117c75760405162461bcd60e51b815260206004820152601c60248201527f4368616c6c656e6765722063616e6e6f742062652061726269746572000000006044820152606401610610565b600060c083013560a08401356117e26080860135600261300e565b6117ec9190613047565b6117f69190613047565b9050600160008154611807906130d0565b919050819055915060026000815461181e906130d0565b90915550604080516101a081019091528061183c602086018661307c565b600181111561184d5761184d612c33565b81526020016000815260200184602001602081019061186c9190612eb0565b6001600160a01b03168152336020820152604001600161188f602087018761307c565b60018111156118a0576118a0612c33565b146118ac5760006118bc565b6118bc6080860160608701612eb0565b6001600160a01b031681526020016118da6060860160408701612eb0565b6001600160a01b0316815260200160006001600160a01b03168152602001846080013581526020018460a0013581526020018460c0013581526020018281526020018460e0013581526020018480610100019061193791906130e9565b8080601f01602080910402602001604051908101604052809392919081815260200183838082843760009201829052509390945250508481526004602052604090208251815491925090829060ff19166001838181111561199a5761199a612c33565b021790555060208201518154829061ff0019166101008360048111156119c2576119c2612c33565b0217905550604082015181546001600160a01b03918216620100000262010000600160b01b031990911617825560608301516001830180549183166001600160a01b0319928316179055608084015160028401805491841691831691909117905560a084015160038401805491841691831691909117905560c084015160048401805491909316911617905560e082015160058201556101008201516006820155610120820151600782015561014082015160088201556101608201516009820155610180820151600a820190611a99908261319a565b50506001600160a01b037f0000000000000000000000000000000000000000000000000000000000000000169050637750c9f033611add6040870160208801612eb0565b86608001356040518463ffffffff1660e01b8152600401611b0093929190612f5e565b600060405180830381600087803b158015611b1a57600080fd5b505af1158015611b2e573d6000803e3d6000fd5b50611b43925050506060840160408501612eb0565b6001600160a01b031633837fd490328b37837683e7446560a715709112106fe6dc1e7a386d04b858fe80af21611b7f6040880160208901612eb0565b608088013560a089013560c08a013560e08b0135611ba060208d018d61307c565b604051611bb296959493929190613258565b60405180910390a450919050565b6000818152600460205260408120908154610100900460ff166004811115611bea57611bea612c33565b14611c075760405162461bcd60e51b815260040161061090612fb6565b60405163c3c5a54760e01b81526001600160a01b037f0000000000000000000000000000000000000000000000000000000000000000169063c3c5a54790611c53903390600401612e9c565b602060405180830381865afa158015611c70573d6000803e3d6000fd5b505050506040513d601f19601f82011682018060405250810190611c94919061305a565b611cb05760405162461bcd60e51b81526004016106109061309d565b60018101546001600160a01b03163303611d0c5760405162461bcd60e51b815260206004820152601d60248201527f43726561746f722063616e6e6f7420616363657074206f776e206265740000006044820152606401610610565b60038101546001600160a01b03163303611d645760405162461bcd60e51b8152602060048201526019602482015278105c989a5d195c8818d85b9b9bdd081858d8d95c1d0818995d603a1b6044820152606401610610565b80600901544210611db15760405162461bcd60e51b815260206004820152601760248201527610995d08191958591b1a5b99481a185cc81c185cdcd959604a1b6044820152606401610610565b6001815460ff166001811115611dc957611dc9612c33565b03611e2a5760028101546001600160a01b03163314611e2a5760405162461bcd60e51b815260206004820152601d60248201527f4e6f74207468652064657369676e61746564206368616c6c656e6765720000006044820152606401610610565b6002810180546001600160a01b03191633908117909155815461ff0019166101001780835560058301546040516307750c9f60e41b81526001600160a01b037f0000000000000000000000000000000000000000000000000000000000000000811694637750c9f094611eac9491936201000090910490921691600401612f5e565b600060405180830381600087803b158015611ec657600080fd5b505af1158015611eda573d6000803e3d6000fd5b5050825460058401546040513394508693507fe751db2434e2b9c25672fa79f0bc264fccfc832b7f52ec936e1b5d95414704be92610c6e92620100009091046001600160a01b031691612fdf565b600081815260046020526040902060018154610100900460ff166004811115611f5357611f53612c33565b14611f705760405162461bcd60e51b815260040161061090612f05565b8060090154421015611fbe5760405162461bcd60e51b8152602060048201526017602482015276111958591b1a5b99481a185cc81b9bdd081c185cdcd959604a1b6044820152606401610610565b805461ff00191661030017815560028054600090611fdb90612f47565b90915550600581015460009061271090611ff8906101f49061300e565b6120029190613025565b905060008183600501546120169190613047565b60018401548454600586015460405163131384f360e11b81529394506001600160a01b037f000000000000000000000000000000000000000000000000000000000000000081169463262709e6946120809490831693620100009091049092169190600401612f5e565b600060405180830381600087803b15801561209a57600080fd5b505af11580156120ae573d6000803e3d6000fd5b50505060028401548454600586015460405163131384f360e11b81526001600160a01b037f00000000000000000000000000000000000000000000000000000000000000008116955063262709e69461211894908216936201000090910490911691600401612f5e565b600060405180830381600087803b15801561213257600080fd5b505af1158015612146573d6000803e3d6000fd5b5050505060018301548354604051637de182c560e01b81526001600160a01b037f0000000000000000000000000000000000000000000000000000000000000000811693637de182c5936121ab93918316926201000090910416908690600401612f5e565b600060405180830381600087803b1580156121c557600080fd5b505af11580156121d9573d6000803e3d6000fd5b5050505060028301548354604051637de182c560e01b81526001600160a01b037f0000000000000000000000000000000000000000000000000000000000000000811693637de182c59361223e93918316926201000090910416908690600401612f5e565b600060405180830381600087803b15801561225857600080fd5b505af115801561226c573d6000803e3d6000fd5b505060035485546001600160a01b037f000000000000000000000000000000000000000000000000000000000000000081169450637de182c593509182169162010000909104166122be86600261300e565b6040518463ffffffff1660e01b81526004016122dc93929190612f5e565b600060405180830381600087803b1580156122f657600080fd5b505af115801561230a573d6000803e3d6000fd5b505050600280850154600186015486546001600160a01b0392831694509082169288927f067b430fcb2d7998875dda05eced5f3d66a065c95a55ba5dd7a81e678cefa800926201000090041690869061236490899061300e565b604051610abf93929190612f95565b6000918252602082815260408084206001600160a01b0393909316845291905290205460ff1690565b60006123a781612ab0565b6001600160a01b0382166123f85760405162461bcd60e51b815260206004820152601860248201527716995c9bc81859191c995cdcc81b9bdd08185b1b1bddd95960421b6044820152606401610610565b6003546040516001600160a01b038085169216907f98a658829c402c9165360ccdcf4bfb731b08f78bcd9aa1b584cc4bbcb900241990600090a350600380546001600160a01b0319166001600160a01b0392909216919091179055565b60008281526020819052604090206001015461247081612ab0565b61058a8383612b4f565b600082815260046020526040902060038101546001600160a01b031633146124e45760405162461bcd60e51b815260206004820152601f60248201527f4f6e6c7920617262697465722063616e206465636c6172652077696e6e6572006044820152606401610610565b60018154610100900460ff16600481111561250157612501612c33565b1461251e5760405162461bcd60e51b815260040161061090612f05565b806009015442106125715760405162461bcd60e51b815260206004820152601d60248201527f4172626974726174696f6e2077696e646f772068617320636c6f7365640000006044820152606401610610565b60018101546001600160a01b038381169116148061259e575060028101546001600160a01b038381169116145b6125db5760405162461bcd60e51b815260206004820152600e60248201526d24b73b30b634b2103bb4b73732b960911b6044820152606401610610565b60018101546000906001600160a01b038481169116146126085760018201546001600160a01b0316612617565b60028201546001600160a01b03165b6004830180546001600160a01b0319166001600160a01b038616179055825461ff001916610200178355600280549192509060009061265590612f47565b9091555060018201548254600584015460405163131384f360e11b81526001600160a01b037f000000000000000000000000000000000000000000000000000000000000000081169463262709e6946126bf94918316936201000090910490921691600401612f5e565b600060405180830381600087803b1580156126d957600080fd5b505af11580156126ed573d6000803e3d6000fd5b50505060028301548354600585015460405163131384f360e11b81526001600160a01b037f00000000000000000000000000000000000000000000000000000000000000008116955063262709e69461275794908216936201000090910490911691600401612f5e565b600060405180830381600087803b15801561277157600080fd5b505af1158015612785573d6000803e3d6000fd5b505083546008850154604051637de182c560e01b81526001600160a01b037f000000000000000000000000000000000000000000000000000000000000000081169550637de182c594506127e89389936201000090910490911691600401612f5e565b600060405180830381600087803b15801561280257600080fd5b505af1158015612816573d6000803e3d6000fd5b505050600383015483546006850154604051637de182c560e01b81526001600160a01b037f000000000000000000000000000000000000000000000000000000000000000081169550637de182c59461288094908216936201000090910490911691600401612f5e565b600060405180830381600087803b15801561289a57600080fd5b505af11580156128ae573d6000803e3d6000fd5b505060035484546007860154604051637de182c560e01b81526001600160a01b037f000000000000000000000000000000000000000000000000000000000000000081169650637de182c5955061291394811693620100009004169190600401612f5e565b600060405180830381600087803b15801561292d57600080fd5b505af1158015612941573d6000803e3d6000fd5b50506040516339cda3e560e11b81526001600160a01b037f000000000000000000000000000000000000000000000000000000000000000016925063739b47ca9150612991908690600401612e9c565b600060405180830381600087803b1580156129ab57600080fd5b505af11580156129bf573d6000803e3d6000fd5b5050604051634506760d60e11b81526001600160a01b037f0000000000000000000000000000000000000000000000000000000000000000169250638a0cec1a9150612a0f908490600401612e9c565b600060405180830381600087803b158015612a2957600080fd5b505af1158015612a3d573d6000803e3d6000fd5b5050835460088501546006860154600787015460408051620100009095046001600160a01b0390811686526020860194909452840191909152606083015280851693508616915086907fce695aa4c77fce03d0c78d2b5a9ce1e16388ce464995baa367eecb6d8622a37a90608001610abf565b612aba8133612bba565b50565b6000612ac98383612373565b612b47576000838152602081815260408083206001600160a01b03861684529091529020805460ff19166001179055612aff3390565b6001600160a01b0316826001600160a01b0316847f2f8788117e7eff1d82e926ec794901d17c78024a50270940304540a733656f0d60405160405180910390a4506001610332565b506000610332565b6000612b5b8383612373565b15612b47576000838152602081815260408083206001600160a01b0386168085529252808320805460ff1916905551339286917ff6391f5c32d9c69d2a47ea670b442974b53935d1edc7fd64eb21e047a839171b9190a4506001610332565b612bc48282612373565b612be557808260405163e2517d3f60e01b8152600401610610929190612fdf565b5050565b600060208284031215612bfb57600080fd5b81356001600160e01b031981168114612c1357600080fd5b9392505050565b600060208284031215612c2c57600080fd5b5035919050565b634e487b7160e01b600052602160045260246000fd5b60028110612c5957612c59612c33565b9052565b60058110612c5957612c59612c33565b6001600160a01b03169052565b6000815180845260005b81811015612ca057602081850181015186830182015201612c84565b506000602082860101526020601f19601f83011685010191505092915050565b60208152612cd2602082018351612c49565b60006020830151612ce66040840182612c5d565b506040830151612cf96060840182612c6d565b506060830151612d0c6080840182612c6d565b506080830151612d1f60a0840182612c6d565b5060a0830151612d3260c0840182612c6d565b5060c0830151612d4560e0840182612c6d565b5060e08301516101008301526101008301516101208301526101208301516101408301526101408301516101608301526101608301516101808301526101808301516101a080840152612d9c6101c0840182612c7a565b949350505050565b80356001600160a01b0381168114612dbb57600080fd5b919050565b60008060408385031215612dd357600080fd5b82359150612de360208401612da4565b90509250929050565b60008060208385031215612dff57600080fd5b82356001600160401b03811115612e1557600080fd5b8301601f81018513612e2657600080fd5b80356001600160401b03811115612e3c57600080fd5b8560208260051b8401011115612e5157600080fd5b6020919091019590945092505050565b600060208284031215612e7357600080fd5b81356001600160401b03811115612e8957600080fd5b82016101208185031215612c1357600080fd5b6001600160a01b0391909116815260200190565b600060208284031215612ec257600080fd5b612c1382612da4565b600181811c90821680612edf57607f821691505b602082108103612eff57634e487b7160e01b600052602260045260246000fd5b50919050565b60208082526012908201527110995d081a5cc81b9bdd081b585d18da195960721b604082015260600190565b634e487b7160e01b600052601160045260246000fd5b600081612f5657612f56612f31565b506000190190565b6001600160a01b039384168152919092166020820152604081019190915260600190565b8082018082111561033257610332612f31565b6001600160a01b039390931683526020830191909152604082015260600190565b6020808252600f908201526e2132ba1034b9903737ba1037b832b760891b604082015260600190565b6001600160a01b03929092168252602082015260400190565b634e487b7160e01b600052603260045260246000fd5b808202811582820484141761033257610332612f31565b60008261304257634e487b7160e01b600052601260045260246000fd5b500490565b8181038181111561033257610332612f31565b60006020828403121561306c57600080fd5b81518015158114612c1357600080fd5b60006020828403121561308e57600080fd5b813560028110612c1357600080fd5b60208082526019908201527810da185b1b195b99d95c881b9bdd081c9959da5cdd195c9959603a1b604082015260600190565b6000600182016130e2576130e2612f31565b5060010190565b6000808335601e1984360301811261310057600080fd5b8301803591506001600160401b0382111561311a57600080fd5b60200191503681900382131561312f57600080fd5b9250929050565b634e487b7160e01b600052604160045260246000fd5b601f8211156105c357806000526020600020601f840160051c810160208510156131735750805b601f840160051c820191505b81811015613193576000815560010161317f565b5050505050565b81516001600160401b038111156131b3576131b3613136565b6131c7816131c18454612ecb565b8461314c565b6020601f8211600181146131fb57600083156131e35750848201515b600019600385901b1c1916600184901b178455613193565b600084815260208120601f198516915b8281101561322b578785015182556020948501946001909201910161320b565b50848210156132495786840151600019600387901b60f8161c191681555b50505050600190811b01905550565b6001600160a01b03871681526020810186905260408101859052606081018490526080810183905260c0810161329160a0830184612c49565b97965050505050505056fea26469706673582212205721cef58ad832f74ffd84db6af00651cee45988cfddb302d939dfb5430a794564736f6c634300081c00333bc0f9b42c848822f1a4151f4808327c629e6c48db254bac4c9b15f4c4d275b0",
  "linkReferences": {},
  "deployedLinkReferences": {}
}