{
  "_format": "hh-sol-artifact-1",
  "contractName": "UserVault",
  "sourceName": "contracts/UserVault.sol",
  "abi": [
    {
      "inputs": [
        {
          "internalType": "address",
          "name": "admin",
          "type": "address"
        }
      ],
      "stateMutability": "nonpayable",
      "type": "constructor"
    },
    {
      "inputs": [],
      "name": "AccessControlBadConfirmation",
      "type": "error"
    },
    {
      "inputs": [
        {
          "internalType": "address",
          "name": "account",
          "type": "address"
        },
        {
          "internalType": "bytes32",
          "name": "neededRole",
          "type": "bytes32"
        }
      ],
      "name": "AccessControlUnauthorizedAccount",
      "type": "error"
    },
    {
      "inputs": [],
      "name": "ReentrancyGuardReentrantCall",
      "type": "error"
    },
    {
      "inputs": [
        {
          "internalType": "address",
          "name": "token",
          "type": "address"
        }
      ],
      "name": "SafeERC20FailedOperation",
      "type": "error"
    },
    {
      "anonymous": false,
      "inputs": [
        {
          "indexed": true,
          "internalType": "address",
          "name": "user",
          "type": "address"
        },
        {
          "indexed": true,
          "internalType": "address",
          "name": "token",
          "type": "address"
        },
        {
          "indexed": false,
          "internalType": "uint256",
          "name": "amount",
          "type": "uint256"
        }
      ],
      "name": "Credited",
      "type": "event"
    },
    {
      "anonymous": false,
      "inputs": [
        {
          "indexed": true,
          "internalType": "address",
          "name": "user",
          "type": "address"
        },
        {
          "indexed": true,
          "internalType": "address",
          "name": "token",
          "type": "address"
        },
        {
          "indexed": false,
          "internalType": "uint256",
          "name": "amount",
          "type": "uint256"
        }
      ],
      "name": "Debited",
      "type": "event"
    },
    {
      "anonymous": false,
      "inputs": [
        {
          "indexed": true,
          "internalType": "address",
          "name": "user",
          "type": "address"
        },
        {
          "indexed": true,
          "internalType": "address",
          "name": "token",
          "type": "address"
        },
        {
          "indexed": false,
          "internalType": "uint256",
          "name": "amount",
          "type": "uint256"
        }
      ],
      "name": "Deposited",
      "type": "event"
    },
    {
      "anonymous": false,
      "inputs": [
        {
          "indexed": true,
          "internalType": "address",
          "name": "user",
          "type": "address"
        },
        {
          "indexed": true,
          "internalType": "address",
          "name": "token",
          "type": "address"
        },
        {
          "indexed": false,
          "internalType": "uint256",
          "name": "amount",
          "type": "uint256"
        }
      ],
      "name": "Locked",
      "type": "event"
    },
    {
      "anonymous": false,
      "inputs": [
        {
          "indexed": true,
          "internalType": "bytes32",
          "name": "role",
          "type": "bytes32"
        },
        {
          "indexed": true,
          "internalType": "bytes32",
          "name": "previousAdminRole",
          "type": "bytes32"
        },
        {
          "indexed": true,
          "internalType": "bytes32",
          "name": "newAdminRole",
          "type": "bytes32"
        }
      ],
      "name": "RoleAdminChanged",
      "type": "event"
    },
    {
      "anonymous": false,
      "inputs": [
        {
          "indexed": true,
          "internalType": "bytes32",
          "name": "role",
          "type": "bytes32"
        },
        {
          "indexed": true,
          "internalType": "address",
          "name": "account",
          "type": "address"
        },
        {
          "indexed": true,
          "internalType": "address",
          "name": "sender",
          "type": "address"
        }
      ],
      "name": "RoleGranted",
      "type": "event"
    },
    {
      "anonymous": false,
      "inputs": [
        {
          "indexed": true,
          "internalType": "bytes32",
          "name": "role",
          "type": "bytes32"
        },
        {
          "indexed": true,
          "internalType": "address",
          "name": "account",
          "type": "address"
        },
        {
          "indexed": true,
          "internalType": "address",
          "name": "sender",
          "type": "address"
        }
      ],
      "name": "RoleRevoked",
      "type": "event"
    },
    {
      "anonymous": false,
      "inputs": [
        {
          "indexed": true,
          "internalType": "address",
          "name": "token",
          "type": "address"
        },
        {
          "indexed": false,
          "internalType": "bool",
          "name": "allowed",
          "type": "bool"
        }
      ],
      "name": "TokenAllowlistUpdated",
      "type": "event"
    },
    {
      "anonymous": false,
      "inputs": [
        {
          "indexed": true,
          "internalType": "address",
          "name": "user",
          "type": "address"
        },
        {
          "indexed": true,
          "internalType": "address",
          "name": "token",
          "type": "address"
        },
        {
          "indexed": false,
          "internalType": "uint256",
          "name": "amount",
          "type": "uint256"
        }
      ],
      "name": "Unlocked",
      "type": "event"
    },
    {
      "anonymous": false,
      "inputs": [
        {
          "indexed": true,
          "internalType": "address",
          "name": "user",
          "type": "address"
        },
        {
          "indexed": true,
          "internalType": "address",
          "name": "token",
          "type": "address"
        },
        {
          "indexed": false,
          "internalType": "uint256",
          "name": "amount",
          "type": "uint256"
        }
      ],
      "name": "Withdrawn",
      "type": "event"
    },
    {
      "inputs": [],
      "name": "BET_MANAGER_ROLE",
      "outputs": [
        {
          "internalType": "bytes32",
          "name": "",
          "type": "bytes32"
        }
      ],
      "stateMutability": "view",
      "type": "function"
    },
    {
      "inputs": [],
      "name": "DEFAULT_ADMIN_ROLE",
      "outputs": [
        {
          "internalType": "bytes32",
          "name": "",
          "type": "bytes32"
        }
      ],
      "stateMutability": "view",
      "type": "function"
    },
    {
      "inputs": [
        {
          "internalType": "address",
          "name": "token",
          "type": "address"
        }
      ],
      "name": "allowedTokens",
      "outputs": [
        {
          "internalType": "bool",
          "name": "",
          "type": "bool"
        }
      ],
      "stateMutability": "view",
      "type": "function"
    },
    {
      "inputs": [
        {
          "internalType": "address",
          "name": "user",
          "type": "address"
        },
        {
          "internalType": "address",
          "name": "token",
          "type": "address"
        }
      ],
      "name": "availableBalance",
      "outputs": [
        {
          "internalType": "uint256",
          "name": "",
          "type": "uint256"
        }
      ],
      "stateMutability": "view",
      "type": "function"
    },
    {
      "inputs": [
        {
          "internalType": "address",
          "name": "user",
          "type": "address"
        },
        {
          "internalType": "address",
          "name": "token",
          "type": "address"
        },
        {
          "internalType": "uint256",
          "name": "amount",
          "type": "uint256"
        }
      ],
      "name": "credit",
      "outputs": [],
      "stateMutability": "nonpayable",
      "type": "function"
    },
    {
      "inputs": [
        {
          "internalType": "address",
          "name": "user",
          "type": "address"
        },
        {
          "internalType": "address",
          "name": "token",
          "type": "address"
        },
        {
          "internalType": "uint256",
          "name": "amount",
          "type": "uint256"
        }
      ],
      "name": "debit",
      "outputs": [],
      "stateMutability": "nonpayable",
      "type": "function"
    },
    {
      "inputs": [
        {
          "internalType": "address",
          "name": "token",
          "type": "address"
        },
        {
          "internalType": "uint256",
          "name": "amount",
          "type": "uint256"
        }
      ],
      "name": "deposit",
      "outputs": [],
      "stateMutability": "nonpayable",
      "type": "function"
    },
    {
      "inputs": [
        {
          "internalType": "bytes32",
          "name": "role",
          "type": "bytes32"
        }
      ],
      "name": "getRoleAdmin",
      "outputs": [
        {
          "internalType": "bytes32",
          "name": "",
          "type": "bytes32"
        }
      ],
      "stateMutability": "view",
      "type": "function"
    },
    {
      "inputs": [
        {
          "internalType": "bytes32",
          "name": "role",
          "type": "bytes32"
        },
        {
          "internalType": "address",
          "name": "account",
          "type": "address"
        }
      ],
      "name": "grantRole",
      "outputs": [],
      "stateMutability": "nonpayable",
      "type": "function"
    },
    {
      "inputs": [
        {
          "internalType": "bytes32",
          "name": "role",
          "type": "bytes32"
        },
        {
          "internalType": "address",
          "name": "account",
          "type": "address"
        }
      ],
      "name": "hasRole",
      "outputs": [
        {
          "internalType": "bool",
          "name": "",
          "type": "bool"
        }
      ],
      "stateMutability": "view",
      "type": "function"
    },
    {
      "inputs": [
        {
          "internalType": "address",
          "name": "user",
          "type": "address"
        },
        {
          "internalType": "address",
          "name": "token",
          "type": "address"
        },
        {
          "internalType": "uint256",
          "name": "amount",
          "type": "uint256"
        }
      ],
      "name": "lock",
      "outputs": [],
      "stateMutability": "nonpayable",
      "type": "function"
    },
    {
      "inputs": [
        {
          "internalType": "address",
          "name": "user",
          "type": "address"
        },
        {
          "internalType": "address",
          "name": "token",
          "type": "address"
        }
      ],
      "name": "lockedBalance",
      "outputs": [
        {
          "internalType": "uint256",
          "name": "",
          "type": "uint256"
        }
      ],
      "stateMutability": "view",
      "type": "function"
    },
    {
      "inputs": [
        {
          "internalType": "bytes32",
          "name": "role",
          "type": "bytes32"
        },
        {
          "internalType": "address",
          "name": "callerConfirmation",
          "type": "address"
        }
      ],
      "name": "renounceRole",
      "outputs": [],
      "stateMutability": "nonpayable",
      "type": "function"
    },
    {
      "inputs": [
        {
          "internalType": "bytes32",
          "name": "role",
          "type": "bytes32"
        },
        {
          "internalType": "address",
          "name": "account",
          "type": "address"
        }
      ],
      "name": "revokeRole",
      "outputs": [],
      "stateMutability": "nonpayable",
      "type": "function"
    },
    {
      "inputs": [
        {
          "internalType": "address",
          "name": "token",
          "type": "address"
        },
        {
          "internalType": "bool",
          "name": "allowed",
          "type": "bool"
        }
      ],
      "name": "setTokenAllowed",
      "outputs": [],
      "stateMutability": "nonpayable",
      "type": "function"
    },
    {
      "inputs": [
        {
          "internalType": "bytes4",
          "name": "interfaceId",
          "type": "bytes4"
        }
      ],
      "name": "supportsInterface",
      "outputs": [
        {
          "internalType": "bool",
          "name": "",
          "type": "bool"
        }
      ],
      "stateMutability": "view",
      "type": "function"
    },
    {
      "inputs": [
        {
          "internalType": "address",
          "name": "user",
          "type": "address"
        },
        {
          "internalType": "address",
          "name": "token",
          "type": "address"
        }
      ],
      "name": "totalBalance",
      "outputs": [
        {
          "internalType": "uint256",
          "name": "",
          "type": "uint256"
        }
      ],
      "stateMutability": "view",
      "type": "function"
    },
    {
      "inputs": [
        {
          "internalType": "address",
          "name": "user",
          "type": "address"
        },
        {
          "internalType": "address",
          "name": "token",
          "type": "address"
        },
        {
          "internalType": "uint256",
          "name": "amount",
          "type": "uint256"
        }
      ],
      "name": "unlock",
      "outputs": [],
      "stateMutability": "nonpayable",
      "type": "function"
    },
    {
      "inputs": [
        {
          "internalType": "address",
          "name": "token",
          "type": "address"
        },
        {
          "internalType": "uint256",
          "name": "amount",
          "type": "uint256"
        }
      ],
      "name": "withdraw",
      "outputs": [],
      "stateMutability": "nonpayable",
      "type": "function"
    }
  ],
  "bytecode": "0x608060405234801561001057600080fd5b506040516110a03803806110a083398101604081905261002f916100f1565b6001805561003e600082610045565b5050610121565b6000828152602081815260408083206001600160a01b038516845290915281205460ff166100e7576000838152602081815260408083206001600160a01b03861684529091529020805460ff1916600117905561009f3390565b6001600160a01b0316826001600160a01b0316847f2f8788117e7eff1d82e926ec794901d17c78024a50270940304540a733656f0d60405160405180910390a45060016100eb565b5060005b92915050565b60006020828403121561010357600080fd5b81516001600160a01b038116811461011a57600080fd5b9392505050565b610f70806101306000396000f3fe608060405234801561001057600080fd5b50600436106101015760003560e01c806347e7ef241161009d57806347e7ef241461023257806359508f8f14610245578063647e60a4146102585780637750c9f01461026d5780637de182c51461028057806391d1485414610293578063a217fddf146102a6578063d547741f146102ae578063e744092e146102c1578063f3fef3a3146102e457600080fd5b806301ffc9a7146101065780631453b9871461012e57806315f690121461014f578063248a9ca314610164578063262709e6146101875780632f2ff15d1461019a5780633419d6ef146101ad57806336568abe146101e65780633ccb64ae146101f9575b600080fd5b610119610114366004610cfd565b6102f7565b60405190151581526020015b60405180910390f35b61014161013c366004610d43565b61032e565b604051908152602001610125565b61016261015d366004610d76565b61037c565b005b610141610172366004610db2565b60009081526020819052604090206001015490565b610162610195366004610dcb565b6103e7565b6101626101a8366004610e08565b6104de565b6101416101bb366004610d43565b6001600160a01b03918216600090815260046020908152604080832093909416825291909152205490565b6101626101f4366004610e08565b610509565b610141610207366004610d43565b6001600160a01b03918216600090815260036020908152604080832093909416825291909152205490565b610162610240366004610e2b565b610541565b610162610253366004610dcb565b610691565b610141600080516020610f1b83398151915281565b61016261027b366004610dcb565b6107ad565b61016261028e366004610dcb565b6108c9565b6101196102a1366004610e08565b610964565b610141600081565b6101626102bc366004610e08565b61098d565b6101196102cf366004610e55565b60026020526000908152604090205460ff1681565b6101626102f2366004610e2b565b6109b2565b60006001600160e01b03198216637965db0b60e01b148061032857506301ffc9a760e01b6001600160e01b03198316145b92915050565b6001600160a01b0380831660008181526004602090815260408083209486168084529482528083205493835260038252808320948352939052918220546103759190610e86565b9392505050565b600061038781610a87565b6001600160a01b038316600081815260026020908152604091829020805460ff191686151590811790915591519182527f1da521c13439ac6ab125c52e0da7dd7de929f09e58aa0f89ebe3dbb12e63a52b910160405180910390a2505050565b600080516020610f1b8339815191526103ff81610a87565b6001600160a01b0380851660009081526004602090815260408083209387168352929052205482111561044d5760405162461bcd60e51b815260040161044490610e99565b60405180910390fd5b6001600160a01b03808516600090815260046020908152604080832093871683529290529081208054849290610484908490610ed0565b92505081905550826001600160a01b0316846001600160a01b03167f9407bd81f01ad8f5ae4a2487b63d3d1b1947257c2dcdda3ea183dc8e6965cc6e846040516104d091815260200190565b60405180910390a350505050565b6000828152602081905260409020600101546104f981610a87565b6105038383610a94565b50505050565b6001600160a01b03811633146105325760405163334bd91960e11b815260040160405180910390fd5b61053c8282610b26565b505050565b610549610b91565b6001600160a01b03821660009081526002602052604090205460ff166105a55760405162461bcd60e51b8152602060048201526011602482015270151bdad95b881b9bdd08185b1b1bddd959607a1b6044820152606401610444565b600081116105f55760405162461bcd60e51b815260206004820152601d60248201527f416d6f756e74206d7573742062652067726561746572207468616e20300000006044820152606401610444565b3360009081526003602090815260408083206001600160a01b038616845290915281208054839290610628908490610e86565b9091555061064390506001600160a01b038316333084610bbb565b6040518181526001600160a01b0383169033907f8752a472e571a816aea92eec8dae9baf628e840f4929fbcc2d155e6233ff68a7906020015b60405180910390a361068d60018055565b5050565b600080516020610f1b8339815191526106a981610a87565b6001600160a01b038085166000908152600460209081526040808320938716835292905220548211156106ee5760405162461bcd60e51b815260040161044490610e99565b6001600160a01b03808516600090815260046020908152604080832093871683529290529081208054849290610725908490610ed0565b90915550506001600160a01b03808516600090815260036020908152604080832093871683529290529081208054849290610761908490610e86565b92505081905550826001600160a01b0316846001600160a01b03167fe6e0ef9cd056ca98561ca60e347ada61e1ede2f1142a078951b7a52e1e508e60846040516104d091815260200190565b600080516020610f1b8339815191526107c581610a87565b6001600160a01b0380851660009081526003602090815260408083209387168352929052205482111561080a5760405162461bcd60e51b815260040161044490610ee3565b6001600160a01b03808516600090815260036020908152604080832093871683529290529081208054849290610841908490610ed0565b90915550506001600160a01b0380851660009081526004602090815260408083209387168352929052908120805484929061087d908490610e86565b92505081905550826001600160a01b0316846001600160a01b03167f989eaa915cbb416ea3d6f9a63b1a3de51770c7674b11fe21ecdf76b4e1d13910846040516104d091815260200190565b600080516020610f1b8339815191526108e181610a87565b6001600160a01b03808516600090815260036020908152604080832093871683529290529081208054849290610918908490610e86565b92505081905550826001600160a01b0316846001600160a01b03167f4e45da441832cf53bdaa69235704fc0575e68210f459ee1562911024b12967d5846040516104d091815260200190565b6000918252602082815260408084206001600160a01b0393909316845291905290205460ff1690565b6000828152602081905260409020600101546109a881610a87565b6105038383610b26565b6109ba610b91565b3360009081526003602090815260408083206001600160a01b03861684529091529020548111156109fd5760405162461bcd60e51b815260040161044490610ee3565b3360009081526003602090815260408083206001600160a01b038616845290915281208054839290610a30908490610ed0565b90915550610a4a90506001600160a01b0383163383610c22565b6040518181526001600160a01b0383169033907fd1c19fbcd4551a5edfb66d43d2e337c04837afda3482b42bdf569a8fccdae5fb9060200161067c565b610a918133610c53565b50565b6000610aa08383610964565b610b1e576000838152602081815260408083206001600160a01b03861684529091529020805460ff19166001179055610ad63390565b6001600160a01b0316826001600160a01b0316847f2f8788117e7eff1d82e926ec794901d17c78024a50270940304540a733656f0d60405160405180910390a4506001610328565b506000610328565b6000610b328383610964565b15610b1e576000838152602081815260408083206001600160a01b0386168085529252808320805460ff1916905551339286917ff6391f5c32d9c69d2a47ea670b442974b53935d1edc7fd64eb21e047a839171b9190a4506001610328565b600260015403610bb457604051633ee5aeb560e01b815260040160405180910390fd5b6002600155565b6040516001600160a01b0384811660248301528381166044830152606482018390526105039186918216906323b872dd906084015b604051602081830303815290604052915060e01b6020820180516001600160e01b038381831617835250505050610c8c565b6040516001600160a01b0383811660248301526044820183905261053c91859182169063a9059cbb90606401610bf0565b610c5d8282610964565b61068d5760405163e2517d3f60e01b81526001600160a01b038216600482015260248101839052604401610444565b600080602060008451602086016000885af180610caf576040513d6000823e3d81fd5b50506000513d91508115610cc7578060011415610cd4565b6001600160a01b0384163b155b1561050357604051635274afe760e01b81526001600160a01b0385166004820152602401610444565b600060208284031215610d0f57600080fd5b81356001600160e01b03198116811461037557600080fd5b80356001600160a01b0381168114610d3e57600080fd5b919050565b60008060408385031215610d5657600080fd5b610d5f83610d27565b9150610d6d60208401610d27565b90509250929050565b60008060408385031215610d8957600080fd5b610d9283610d27565b915060208301358015158114610da757600080fd5b809150509250929050565b600060208284031215610dc457600080fd5b5035919050565b600080600060608486031215610de057600080fd5b610de984610d27565b9250610df760208501610d27565b929592945050506040919091013590565b60008060408385031215610e1b57600080fd5b82359150610d6d60208401610d27565b60008060408385031215610e3e57600080fd5b610e4783610d27565b946020939093013593505050565b600060208284031215610e6757600080fd5b61037582610d27565b634e487b7160e01b600052601160045260246000fd5b8082018082111561032857610328610e70565b6020808252601b908201527f496e73756666696369656e74206c6f636b65642062616c616e63650000000000604082015260600190565b8181038181111561032857610328610e70565b6020808252601e908201527f496e73756666696369656e7420617661696c61626c652062616c616e6365000060408201526060019056fe3bc0f9b42c848822f1a4151f4808327c629e6c48db254bac4c9b15f4c4d275b0a2646970667358221220ea2ef64df62e88c13cc3e43e5053ef3702707a72a8398257092a3f1a1f1ce16164736f6c634300081c0033",
  "linkReferences": {},
  "deployedLinkReferences": {}
}