{
  "_format": "hh-sol-artifact-1",
  "contractName": "UserRegistry",
  "sourceName": "contracts/UserRegistry.sol",
  "abi": [
    {
      "inputs": [
        {
          "internalType": "address",
          "name": "admin",
          "type": "address"
        }
      ],
      "stateMutability": "nonpayable",
      "type": "constructor"
    },
    {
      "inputs": [],
      "name": "AccessControlBadConfirmation",
      "type": "error"
    },
    {
      "inputs": [
        {
          "internalType": "address",
          "name": "account",
          "type": "address"
        },
        {
          "internalType": "bytes32",
          "name": "neededRole",
          "type": "bytes32"
        }
      ],
      "name": "AccessControlUnauthorizedAccount",
      "type": "error"
    },
    {
      "anonymous": false,
      "inputs": [
        {
          "indexed": true,
          "internalType": "address",
          "name": "user",
          "type": "address"
        },
        {
          "indexed": false,
          "internalType": "uint256",
          "name": "totalLosses",
          "type": "uint256"
        }
      ],
      "name": "LossRecorded",
      "type": "event"
    },
    {
      "anonymous": false,
      "inputs": [
        {
          "indexed": true,
          "internalType": "bytes32",
          "name": "role",
          "type": "bytes32"
        },
        {
          "indexed": true,
          "internalType": "bytes32",
          "name": "previousAdminRole",
          "type": "bytes32"
        },
        {
          "indexed": true,
          "internalType": "bytes32",
          "name": "newAdminRole",
          "type": "bytes32"
        }
      ],
      "name": "RoleAdminChanged",
      "type": "event"
    },
    {
      "anonymous": false,
      "inputs": [
        {
          "indexed": true,
          "internalType": "bytes32",
          "name": "role",
          "type": "bytes32"
        },
        {
          "indexed": true,
          "internalType": "address",
          "name": "account",
          "type": "address"
        },
        {
          "indexed": true,
          "internalType": "address",
          "name": "sender",
          "type": "address"
        }
      ],
      "name": "RoleGranted",
      "type": "event"
    },
    {
      "anonymous": false,
      "inputs": [
        {
          "indexed": true,
          "internalType": "bytes32",
          "name": "role",
          "type": "bytes32"
        },
        {
          "indexed": true,
          "internalType": "address",
          "name": "account",
          "type": "address"
        },
        {
          "indexed": true,
          "internalType": "address",
          "name": "sender",
          "type": "address"
        }
      ],
      "name": "RoleRevoked",
      "type": "event"
    },
    {
      "anonymous": false,
      "inputs": [
        {
          "indexed": true,
          "internalType": "address",
          "name": "user",
          "type": "address"
        },
        {
          "indexed": true,
          "internalType": "bytes32",
          "name": "username",
          "type": "bytes32"
        }
      ],
      "name": "UserRegistered",
      "type": "event"
    },
    {
      "anonymous": false,
      "inputs": [
        {
          "indexed": true,
          "internalType": "address",
          "name": "user",
          "type": "address"
        },
        {
          "indexed": false,
          "internalType": "uint256",
          "name": "totalWins",
          "type": "uint256"
        }
      ],
      "name": "WinRecorded",
      "type": "event"
    },
    {
      "inputs": [],
      "name": "BET_MANAGER_ROLE",
      "outputs": [
        {
          "internalType": "bytes32",
          "name": "",
          "type": "bytes32"
        }
      ],
      "stateMutability": "view",
      "type": "function"
    },
    {
      "inputs": [],
      "name": "DEFAULT_ADMIN_ROLE",
      "outputs": [
        {
          "internalType": "bytes32",
          "name": "",
          "type": "bytes32"
        }
      ],
      "stateMutability": "view",
      "type": "function"
    },
    {
      "inputs": [
        {
          "internalType": "address",
          "name": "user",
          "type": "address"
        }
      ],
      "name": "getProfile",
      "outputs": [
        {
          "components": [
            {
              "internalType": "bytes32",
              "name": "username",
              "type": "bytes32"
            },
            {
              "internalType": "uint256",
              "name": "wins",
              "type": "uint256"
            },
            {
              "internalType": "uint256",
              "name": "losses",
              "type": "uint256"
            }
          ],
          "internalType": "struct UserRegistry.UserProfile",
          "name": "",
          "type": "tuple"
        }
      ],
      "stateMutability": "view",
      "type": "function"
    },
    {
      "inputs": [
        {
          "internalType": "bytes32",
          "name": "role",
          "type": "bytes32"
        }
      ],
      "name": "getRoleAdmin",
      "outputs": [
        {
          "internalType": "bytes32",
          "name": "",
          "type": "bytes32"
        }
      ],
      "stateMutability": "view",
      "type": "function"
    },
    {
      "inputs": [
        {
          "internalType": "bytes32",
          "name": "role",
          "type": "bytes32"
        },
        {
          "internalType": "address",
          "name": "account",
          "type": "address"
        }
      ],
      "name": "grantRole",
      "outputs": [],
      "stateMutability": "nonpayable",
      "type": "function"
    },
    {
      "inputs": [
        {
          "internalType": "bytes32",
          "name": "role",
          "type": "bytes32"
        },
        {
          "internalType": "address",
          "name": "account",
          "type": "address"
        }
      ],
      "name": "hasRole",
      "outputs": [
        {
          "internalType": "bool",
          "name": "",
          "type": "bool"
        }
      ],
      "stateMutability": "view",
      "type": "function"
    },
    {
      "inputs": [
        {
          "internalType": "address",
          "name": "user",
          "type": "address"
        }
      ],
      "name": "isRegistered",
      "outputs": [
        {
          "internalType": "bool",
          "name": "",
          "type": "bool"
        }
      ],
      "stateMutability": "view",
      "type": "function"
    },
    {
      "inputs": [
        {
          "internalType": "address",
          "name": "user",
          "type": "address"
        }
      ],
      "name": "recordLoss",
      "outputs": [],
      "stateMutability": "nonpayable",
      "type": "function"
    },
    {
      "inputs": [
        {
          "internalType": "address",
          "name": "user",
          "type": "address"
        }
      ],
      "name": "recordWin",
      "outputs": [],
      "stateMutability": "nonpayable",
      "type": "function"
    },
    {
      "inputs": [
        {
          "internalType": "bytes32",
          "name": "username",
          "type": "bytes32"
        }
      ],
      "name": "register",
      "outputs": [],
      "stateMutability": "nonpayable",
      "type": "function"
    },
    {
      "inputs": [
        {
          "internalType": "bytes32",
          "name": "role",
          "type": "bytes32"
        },
        {
          "internalType": "address",
          "name": "callerConfirmation",
          "type": "address"
        }
      ],
      "name": "renounceRole",
      "outputs": [],
      "stateMutability": "nonpayable",
      "type": "function"
    },
    {
      "inputs": [
        {
          "internalType": "bytes32",
          "name": "role",
          "type": "bytes32"
        },
        {
          "internalType": "address",
          "name": "account",
          "type": "address"
        }
      ],
      "name": "revokeRole",
      "outputs": [],
      "stateMutability": "nonpayable",
      "type": "function"
    },
    {
      "inputs": [
        {
          "internalType": "bytes4",
          "name": "interfaceId",
          "type": "bytes4"
        }
      ],
      "name": "supportsInterface",
      "outputs": [
        {
          "internalType": "bool",
          "name": "",
          "type": "bool"
        }
      ],
      "stateMutability": "view",
      "type": "function"
    },
    {
      "inputs": [
        {
          "internalType": "bytes32",
          "name": "username",
          "type": "bytes32"
        }
      ],
      "name": "usernameOwner",
      "outputs": [
        {
          "internalType": "address",
          "name": "",
          "type": "address"
        }
      ],
      "stateMutability": "view",
      "type": "function"
    }
  ],
  "bytecode": "0x608060405234801561001057600080fd5b50604051610ac9380380610ac983398101604081905261002f916100ed565b61003a600082610041565b505061011d565b6000828152602081815260408083206001600160a01b038516845290915281205460ff166100e3576000838152602081815260408083206001600160a01b03861684529091529020805460ff1916600117905561009b3390565b6001600160a01b0316826001600160a01b0316847f2f8788117e7eff1d82e926ec794901d17c78024a50270940304540a733656f0d60405160405180910390a45060016100e7565b5060005b92915050565b6000602082840312156100ff57600080fd5b81516001600160a01b038116811461011657600080fd5b9392505050565b61099d8061012c6000396000f3fe608060405234801561001057600080fd5b50600436106100ca5760003560e01c80638a0cec1a1161007c5780638a0cec1a146101ad57806391d14854146101c0578063a217fddf146101d3578063a6c71aec146101db578063c3c5a5471461021c578063d547741f14610248578063e1fa8e841461025b57600080fd5b806301ffc9a7146100cf5780630f53a470146100f7578063248a9ca31461012c5780632f2ff15d1461015d57806336568abe14610172578063647e60a414610185578063739b47ca1461019a575b600080fd5b6100e26100dd366004610846565b61026e565b60405190151581526020015b60405180910390f35b61010a610105366004610893565b6102a5565b60408051825181526020808401519082015291810151908201526060016100ee565b61014f61013a3660046108ae565b60009081526020819052604090206001015490565b6040519081526020016100ee565b61017061016b3660046108c7565b610340565b005b6101706101803660046108c7565b61036b565b61014f60008051602061094883398151915281565b6101706101a8366004610893565b6103a3565b6101706101bb366004610893565b61046b565b6100e26101ce3660046108c7565b610526565b61014f600081565b6102046101e93660046108ae565b6000908152600360205260409020546001600160a01b031690565b6040516001600160a01b0390911681526020016100ee565b6100e261022a366004610893565b6001600160a01b031660009081526002602052604090205460ff1690565b6101706102563660046108c7565b61054f565b6101706102693660046108ae565b610574565b60006001600160e01b03198216637965db0b60e01b148061029f57506301ffc9a760e01b6001600160e01b03198316145b92915050565b60408051606081018252600080825260208083018290528284018290526001600160a01b038516825260029052919091205460ff166102ff5760405162461bcd60e51b81526004016102f6906108f3565b60405180910390fd5b506001600160a01b03166000908152600160208181526040928390208351606081018552815481529281015491830191909152600201549181019190915290565b60008281526020819052604090206001015461035b816106ff565b610365838361070c565b50505050565b6001600160a01b03811633146103945760405163334bd91960e11b815260040160405180910390fd5b61039e828261079e565b505050565b6000805160206109488339815191526103bb816106ff565b6001600160a01b03821660009081526002602052604090205460ff166103f35760405162461bcd60e51b81526004016102f6906108f3565b6001600160a01b03821660009081526001602081905260408220018054829061041b90610920565b9190508190559050826001600160a01b03167fce9186781e8006f36a263069cd0536d17c70074ebc34f8a94031520f1ac7b3248260405161045e91815260200190565b60405180910390a2505050565b600080516020610948833981519152610483816106ff565b6001600160a01b03821660009081526002602052604090205460ff166104bb5760405162461bcd60e51b81526004016102f6906108f3565b6001600160a01b0382166000908152600160205260408120600201805482906104e390610920565b9190508190559050826001600160a01b03167fa4325e9537de0993cb7e718526f107525a5d529f2644c35bf9785cce2fe77b668260405161045e91815260200190565b6000918252602082815260408084206001600160a01b0393909316845291905290205460ff1690565b60008281526020819052604090206001015461056a816106ff565b610365838361079e565b3360009081526002602052604090205460ff16156105c95760405162461bcd60e51b8152602060048201526012602482015271105b1c9958591e481c9959da5cdd195c995960721b60448201526064016102f6565b806106115760405162461bcd60e51b8152602060048201526018602482015277557365726e616d652063616e6e6f7420626520656d70747960401b60448201526064016102f6565b6000818152600360205260409020546001600160a01b03161561066f5760405162461bcd60e51b81526020600482015260166024820152752ab9b2b93730b6b29030b63932b0b23c903a30b5b2b760511b60448201526064016102f6565b6040805160608101825282815260006020808301828152838501838152338085526001808552878620965187559251868401559051600295860155938252848320805460ff191690911790558482526003905282812080546001600160a01b03191683179055915183927f4c5d15f5779ae1ecd7d55bd3283d898e29c35743d172bd7b83a16e17bc0afe2a91a350565b6107098133610809565b50565b60006107188383610526565b610796576000838152602081815260408083206001600160a01b03861684529091529020805460ff1916600117905561074e3390565b6001600160a01b0316826001600160a01b0316847f2f8788117e7eff1d82e926ec794901d17c78024a50270940304540a733656f0d60405160405180910390a450600161029f565b50600061029f565b60006107aa8383610526565b15610796576000838152602081815260408083206001600160a01b0386168085529252808320805460ff1916905551339286917ff6391f5c32d9c69d2a47ea670b442974b53935d1edc7fd64eb21e047a839171b9190a450600161029f565b6108138282610526565b6108425760405163e2517d3f60e01b81526001600160a01b0382166004820152602481018390526044016102f6565b5050565b60006020828403121561085857600080fd5b81356001600160e01b03198116811461087057600080fd5b9392505050565b80356001600160a01b038116811461088e57600080fd5b919050565b6000602082840312156108a557600080fd5b61087082610877565b6000602082840312156108c057600080fd5b5035919050565b600080604083850312156108da57600080fd5b823591506108ea60208401610877565b90509250929050565b602080825260139082015272155cd95c881b9bdd081c9959da5cdd195c9959606a1b604082015260600190565b60006001820161094057634e487b7160e01b600052601160045260246000fd5b506001019056fe3bc0f9b42c848822f1a4151f4808327c629e6c48db254bac4c9b15f4c4d275b0a2646970667358221220fa30fa86a846ef0766c8f98a9bd43561b09dc1a1f8392422d908fe05e40ea42c64736f6c634300081c0033",
  "linkReferences": {},
  "deployedLinkReferences": {}
}